:100000000C9434000C9446000C9446000C949B0015
:100010000C9446000C9446000C9446000C94460048
:100020000C9446000C9446000C9446000C94580026
:100030000C9475000C9446000C9446000C944600F9
:100040000C9446000C9446000C9491000C944600CD
:100050000C9446000C9446000C9446000C94460008
:100060000C9446000C94460011241FBECFEFD8E03C
:10007000DEBFCDBF21E0A0E0B1E001C01D92A03104
:10008000B207E1F70E9441010C94C0010C940000FA
:1000900010920201109201018091030190910401DC
:1000A000892B29F0809100018160809300010895DF
:1000B0001F920F920FB60F9211248F939F93EF937D
:1000C000FF93E8E8F0E080819181805E914B91831D
:1000D00080838EB381608EBBFF91EF919F918F9152
:1000E0000F900FBE0F901F9018951F920F920FB692
:1000F0000F9211248F939F93EF93FF93EAE8F0E020
:10010000808191814496918380838EB384608EBB7D
:10011000FF91EF919F918F910F900FBE0F901F90C5
:1001200018951F920F920FB60F9211240F900FBEC9
:100130000F901F9018951F920F920FB60F921124D7
:100140008F939F930AB404FC0FC080918400909118
:100150008500909308018093070182E080936900F5
:100160008AB580618ABD0BC0809184009091850022
:1001700090930F0180930E018AB580628ABD9F9192
:100180008F910F900FBE0F901F90189582E284B947
:1001900081E185B908951092800082E0809381000A
:1001A00080E29EE4909389008093880084E190E04F
:1001B00090938B0080938A0086E080936F0086B3D3
:1001C00086BB0895E0ECF0E08081808382E080834C
:1001D00088E08093C10086E08093C20080E190E0D7
:1001E0009093C5008093C400089581E08DBB8093F7
:1001F0006B00E8E6F0E080818160808308958EB333
:100200008E7F8EBB80910C01815080930C018111F7
:1002100006C082E380930C018EB382608EBBF39B99
:100220000CC080910D01882321F0815080930D0135
:1002300008958EB380618EBB08958AE080930D018E
:1002400008958AB58F7B8ABD8AB580688ABD8AB5D4
:100250008F7E8ABD8AB58F7D8ABDE9E6F0E0808118
:100260008360808308958091C00085FF04C08091E1
:100270000A018093C600089595B180E2892785B967
:100280000895F8940E94C6000E94CB000E94E200EC
:100290000E94F500789483E9809309018EE18093B0
:1002A0000C018AE080930D018AE380930B010E9488
:1002B0004800F29B1CC08EB38B7F8EBB80910901DE
:1002C000815080930901811106C083E9809309015F
:1002D0008AB580648ABD0AB407FE09C0199B03C0B1
:1002E0008AB58F778ABD95B182E0892785B9F09963
:1002F0000E94FF00F19B05C08EB38D7F8EBB0E94D4
:1003000033010AB406FC0E9421010AB405FE16C09E
:1003100020910E0130910F01809107019091080109
:10032000281B390BAFE9B6E40E94B1019295829582
:100330008F7089279F70892780930A011C9904C0B8
:100340008EB388608EBB03C08EB3877F8EBBF49B59
:10035000B0CFF399AECF8EB38F7E8EBB0E943C019F
:10036000A8CFA29FB001B39FC001A39F700D811DB4
:100370001124911DB29F700D811D1124911D0895AE
:04038000F894FFCF1F
:00000001FF
