:100000000C9434000C9446000C9446000C9446006A
:100010000C9446000C9446000C9446000C94460048
:100020000C9446000C9446000C9446000C94580026
:100030000C9475000C9446000C9446000C944600F9
:100040000C9446000C9446000C9491000C944600CD
:100050000C9446000C9446000C9446000C94460008
:100060000C9446000C94460011241FBECFEFD8E03C
:10007000DEBFCDBF21E0A0E0B1E001C01D92A03104
:10008000B207E1F70E9408010C9493010C94000060
:1000900010920201109201018091030190910401DC
:1000A000892B29F0809100018160809300010895DF
:1000B0001F920F920FB60F9211248F939F93EF937D
:1000C000FF93E8E8F0E080819181805E914B91831D
:1000D00080838EB381608EBBFF91EF919F918F9152
:1000E0000F900FBE0F901F9018951F920F920FB692
:1000F0000F9211248F939F93EF93FF93EAE8F0E020
:10010000808191814496918380838EB384608EBB7D
:10011000FF91EF919F918F910F900FBE0F901F90C5
:1001200018951F920F920FB60F9211240F900FBEC9
:100130000F901F90189582E284B981E185B90895E6
:100140001092800082E08093810080E29EE4909390
:1001500089008093880084E190E090938B008093E5
:100160008A0086E080936F0086B386BB0895E0EC3A
:10017000F0E08081808382E0808388E08093C1000A
:1001800086E08093C20080E190E09093C500809368
:10019000C40008958EB38E7F8EBB80910C01815078
:1001A00080930C01811106C08AE080930C018EB30C
:1001B00082608EBBF39B0CC080910D01882321F0DF
:1001C000815080930D0108958EB380618EBB089598
:1001D0008AE080930D0108958EB38F7B8EBB8EB322
:1001E00080688EBB8EB38F7D8EBB08958091C000DA
:1001F00085FF04C080910A018093C60095B180E21A
:10020000892785B9089595B180E2892785B9089530
:10021000F8940E949B000E94A0000E94B70078946E
:1002200083E9809309018AE380930B010E944800CF
:10023000F29B1BC08EB38B7F8EBB809109018150D6
:1002400080930901811106C081E9809309018EB371
:1002500080648EBBF79B09C0199B03C08EB38F7758
:100260008EBB95B182E0892785B9F0990E94CA00BA
:10027000F19B05C08EB38D7F8EBB0E94F600F69970
:100280000E94EC00189B0EC0F59908C08091840074
:100290009091850090930801809307018EB380624E
:1002A0008EBB1FC0F59B1DC020918400309185003E
:1002B00030930F0120930E01809107019091080166
:1002C000281B390BAFE9B6E40E9484019295829510
:1002D0008F7089279F70892780930A018EB38F7D45
:1002E0008EBB1C9904C08EB388608EBB03C08EB3D6
:1002F000877F8EBBF49B9CCFF3999ACF8EB38F7E72
:100300008EBB0E94030194CFA29FB001B39FC00196
:10031000A39F700D811D1124911DB29F700D811D31
:0A0320001124911D0895F894FFCFF9
:00000001FF
